{
    "_format": "hh-sol-artifact-1",
    "contractName": "Voting",
    "sourceName": "contracts/Voting.sol",
    "abi": [
        {
            "inputs": [],
            "stateMutability": "nonpayable",
            "type": "constructor"
        },
        {
            "inputs": [],
            "name": "Admin_Cannot_Be_Candidate",
            "type": "error"
        },
        {
            "inputs": [],
            "name": "AlreadyVoter_Or_IsAdmin_Or_IsOwner_Or_IsCandidate",
            "type": "error"
        },
        {
            "inputs": [],
            "name": "Already_A_Candidate",
            "type": "error"
        },
        {
            "inputs": [],
            "name": "Already_Voted_Or_Not_A_Voter",
            "type": "error"
        },
        {
            "inputs": [],
            "name": "Candidates_Cannot_Be_Added_Yet",
            "type": "error"
        },
        {
            "inputs": [],
            "name": "Candidates_Still_Adding",
            "type": "error"
        },
        {
            "inputs": [],
            "name": "IsOwner_Or_AlreadyAnAdmin",
            "type": "error"
        },
        {
            "inputs": [],
            "name": "No_Candidate",
            "type": "error"
        },
        {
            "inputs": [],
            "name": "No_Candidates_Or_No_Voters",
            "type": "error"
        },
        {
            "inputs": [],
            "name": "No_Voters",
            "type": "error"
        },
        {
            "inputs": [],
            "name": "Not_A_Candidate",
            "type": "error"
        },
        {
            "inputs": [],
            "name": "Not_Admin",
            "type": "error"
        },
        {
            "inputs": [],
            "name": "Not_Admin_Or_Candidates_Still_Adding",
            "type": "error"
        },
        {
            "inputs": [],
            "name": "Only_Admin_Can_Add_Voters",
            "type": "error"
        },
        {
            "inputs": [
                {
                    "internalType": "address",
                    "name": "owner",
                    "type": "address"
                }
            ],
            "name": "OwnableInvalidOwner",
            "type": "error"
        },
        {
            "inputs": [
                {
                    "internalType": "address",
                    "name": "account",
                    "type": "address"
                }
            ],
            "name": "OwnableUnauthorizedAccount",
            "type": "error"
        },
        {
            "inputs": [],
            "name": "StillVoting_Or_Candidates_Still_Adding",
            "type": "error"
        },
        {
            "inputs": [],
            "name": "There_Are_Already_Some_Candidates",
            "type": "error"
        },
        {
            "inputs": [],
            "name": "Voting_Already_Started",
            "type": "error"
        },
        {
            "inputs": [],
            "name": "Voting_Not_Started",
            "type": "error"
        },
        {
            "anonymous": false,
            "inputs": [
                {
                    "indexed": true,
                    "internalType": "address",
                    "name": "previousOwner",
                    "type": "address"
                },
                {
                    "indexed": true,
                    "internalType": "address",
                    "name": "newOwner",
                    "type": "address"
                }
            ],
            "name": "OwnershipTransferred",
            "type": "event"
        },
        {
            "inputs": [
                {
                    "internalType": "address",
                    "name": "newAdmin",
                    "type": "address"
                }
            ],
            "name": "addAdmin",
            "outputs": [],
            "stateMutability": "nonpayable",
            "type": "function"
        },
        {
            "inputs": [
                {
                    "internalType": "address",
                    "name": "newCandidate",
                    "type": "address"
                }
            ],
            "name": "addCandidates",
            "outputs": [],
            "stateMutability": "nonpayable",
            "type": "function"
        },
        {
            "inputs": [
                {
                    "internalType": "address",
                    "name": "newVoter",
                    "type": "address"
                }
            ],
            "name": "addVoter",
            "outputs": [],
            "stateMutability": "nonpayable",
            "type": "function"
        },
        {
            "inputs": [
                {
                    "internalType": "address",
                    "name": "",
                    "type": "address"
                }
            ],
            "name": "adminMapping",
            "outputs": [
                {
                    "internalType": "bool",
                    "name": "",
                    "type": "bool"
                }
            ],
            "stateMutability": "view",
            "type": "function"
        },
        {
            "inputs": [
                {
                    "internalType": "uint256",
                    "name": "",
                    "type": "uint256"
                }
            ],
            "name": "admins",
            "outputs": [
                {
                    "internalType": "enum Voting.PersonType",
                    "name": "typeOfPerson",
                    "type": "uint8"
                },
                {
                    "internalType": "address",
                    "name": "person",
                    "type": "address"
                }
            ],
            "stateMutability": "view",
            "type": "function"
        },
        {
            "inputs": [],
            "name": "candidatesAddingStarted",
            "outputs": [
                {
                    "internalType": "bool",
                    "name": "",
                    "type": "bool"
                }
            ],
            "stateMutability": "view",
            "type": "function"
        },
        {
            "inputs": [
                {
                    "internalType": "uint256",
                    "name": "",
                    "type": "uint256"
                }
            ],
            "name": "candidatesArray",
            "outputs": [
                {
                    "internalType": "address",
                    "name": "",
                    "type": "address"
                }
            ],
            "stateMutability": "view",
            "type": "function"
        },
        {
            "inputs": [
                {
                    "internalType": "address",
                    "name": "",
                    "type": "address"
                }
            ],
            "name": "candidatesToVoters",
            "outputs": [
                {
                    "internalType": "uint256",
                    "name": "",
                    "type": "uint256"
                }
            ],
            "stateMutability": "view",
            "type": "function"
        },
        {
            "inputs": [
                {
                    "internalType": "address",
                    "name": "candidate",
                    "type": "address"
                }
            ],
            "name": "castVote",
            "outputs": [],
            "stateMutability": "nonpayable",
            "type": "function"
        },
        {
            "inputs": [],
            "name": "declareWinner",
            "outputs": [
                {
                    "internalType": "address",
                    "name": "",
                    "type": "address"
                },
                {
                    "internalType": "uint256",
                    "name": "",
                    "type": "uint256"
                }
            ],
            "stateMutability": "nonpayable",
            "type": "function"
        },
        {
            "inputs": [],
            "name": "endAddingCandidates",
            "outputs": [],
            "stateMutability": "nonpayable",
            "type": "function"
        },
        {
            "inputs": [],
            "name": "endVoting",
            "outputs": [],
            "stateMutability": "nonpayable",
            "type": "function"
        },
        {
            "inputs": [
                {
                    "internalType": "address",
                    "name": "adminToBeFound",
                    "type": "address"
                }
            ],
            "name": "hasAdmin",
            "outputs": [
                {
                    "internalType": "bool",
                    "name": "",
                    "type": "bool"
                }
            ],
            "stateMutability": "view",
            "type": "function"
        },
        {
            "inputs": [
                {
                    "internalType": "address",
                    "name": "candidateToBeFound",
                    "type": "address"
                }
            ],
            "name": "hasCandidates",
            "outputs": [
                {
                    "internalType": "bool",
                    "name": "",
                    "type": "bool"
                }
            ],
            "stateMutability": "view",
            "type": "function"
        },
        {
            "inputs": [
                {
                    "internalType": "address",
                    "name": "voterToBeFound",
                    "type": "address"
                }
            ],
            "name": "hasVoter",
            "outputs": [
                {
                    "internalType": "bool",
                    "name": "",
                    "type": "bool"
                }
            ],
            "stateMutability": "view",
            "type": "function"
        },
        {
            "inputs": [],
            "name": "owner",
            "outputs": [
                {
                    "internalType": "address",
                    "name": "",
                    "type": "address"
                }
            ],
            "stateMutability": "view",
            "type": "function"
        },
        {
            "inputs": [],
            "name": "renounceOwnership",
            "outputs": [],
            "stateMutability": "nonpayable",
            "type": "function"
        },
        {
            "inputs": [],
            "name": "startAddingCandidates",
            "outputs": [],
            "stateMutability": "nonpayable",
            "type": "function"
        },
        {
            "inputs": [],
            "name": "startVoting",
            "outputs": [],
            "stateMutability": "nonpayable",
            "type": "function"
        },
        {
            "inputs": [
                {
                    "internalType": "address",
                    "name": "newOwner",
                    "type": "address"
                }
            ],
            "name": "transferOwnership",
            "outputs": [],
            "stateMutability": "nonpayable",
            "type": "function"
        },
        {
            "inputs": [
                {
                    "internalType": "address",
                    "name": "",
                    "type": "address"
                }
            ],
            "name": "voterMapping",
            "outputs": [
                {
                    "internalType": "bool",
                    "name": "",
                    "type": "bool"
                }
            ],
            "stateMutability": "view",
            "type": "function"
        },
        {
            "inputs": [
                {
                    "internalType": "uint256",
                    "name": "",
                    "type": "uint256"
                }
            ],
            "name": "voters",
            "outputs": [
                {
                    "internalType": "enum Voting.PersonType",
                    "name": "typeOfPerson",
                    "type": "uint8"
                },
                {
                    "internalType": "address",
                    "name": "person",
                    "type": "address"
                }
            ],
            "stateMutability": "view",
            "type": "function"
        },
        {
            "inputs": [],
            "name": "votingStarted",
            "outputs": [
                {
                    "internalType": "bool",
                    "name": "",
                    "type": "bool"
                }
            ],
            "stateMutability": "view",
            "type": "function"
        }
    ],
    "bytecode": "0x60a06040523480156200001157600080fd5b5033600073ffffffffffffffffffffffffffffffffffffffff168173ffffffffffffffffffffffffffffffffffffffff1603620000885760006040517f1e4fbdf70000000000000000000000000000000000000000000000000000000081526004016200007f919062000211565b60405180910390fd5b62000099816200010860201b60201c565b503373ffffffffffffffffffffffffffffffffffffffff1660808173ffffffffffffffffffffffffffffffffffffffff168152505060008060146101000a81548160ff02191690831515021790555060008060156101000a81548160ff0219169083151502179055506200022e565b60008060009054906101000a900473ffffffffffffffffffffffffffffffffffffffff169050816000806101000a81548173ffffffffffffffffffffffffffffffffffffffff021916908373ffffffffffffffffffffffffffffffffffffffff1602179055508173ffffffffffffffffffffffffffffffffffffffff168173ffffffffffffffffffffffffffffffffffffffff167f8be0079c531659141344cd1fd0a4f28419497f9722a3daafe3b4186f6b6457e060405160405180910390a35050565b600073ffffffffffffffffffffffffffffffffffffffff82169050919050565b6000620001f982620001cc565b9050919050565b6200020b81620001ec565b82525050565b600060208201905062000228600083018462000200565b92915050565b608051611b396200025160003960008181610e2401526113320152611b396000f3fe608060405234801561001057600080fd5b506004361061014d5760003560e01c806372951a2a116100c3578063c3403ddf1161007c578063c3403ddf14610368578063da58c7d914610372578063e479c41b146103a3578063ed2b77e6146103d3578063f2fde38b14610403578063f4ab9adf1461041f5761014d565b806372951a2a146102a457806383d948b7146102d45780638da5cb5b146102f25780639a1564c4146103105780639e8a15e614610340578063a7ec11c71461035e5761014d565b806335950fed1161011557806335950fed146101f857806353358fc41461022857806358e4994e146102445780635df5c5fe1461024e578063704802751461027e578063715018a61461029a5761014d565b806308e49a88146101525780630dc968b81461016e57806314034bd21461019e57806314bfd6d0146101bd5780631ec6b60a146101ee575b600080fd5b61016c60048036038101906101679190611846565b61043b565b005b61018860048036038101906101839190611846565b610605565b604051610195919061188e565b60405180910390f35b6101a6610625565b6040516101b49291906118d1565b60405180910390f35b6101d760048036038101906101d29190611926565b6109c1565b6040516101e59291906119ca565b60405180910390f35b6101f6610a1e565b005b610212600480360381019061020d9190611846565b610b4c565b60405161021f919061188e565b60405180910390f35b610242600480360381019061023d9190611846565b610ba9565b005b61024c610d76565b005b61026860048036038101906102639190611846565b610da7565b604051610275919061188e565b60405180910390f35b61029860048036038101906102939190611846565b610e04565b005b6102a2610fe2565b005b6102be60048036038101906102b99190611926565b610ff6565b6040516102cb91906119f3565b60405180910390f35b6102dc611035565b6040516102e9919061188e565b60405180910390f35b6102fa611048565b60405161030791906119f3565b60405180910390f35b61032a60048036038101906103259190611846565b611071565b604051610337919061188e565b60405180910390f35b6103486110be565b604051610355919061188e565b60405180910390f35b6103666110d1565b005b610370611174565b005b61038c60048036038101906103879190611926565b6111f6565b60405161039a9291906119ca565b60405180910390f35b6103bd60048036038101906103b89190611846565b611253565b6040516103ca9190611a0e565b60405180910390f35b6103ed60048036038101906103e89190611846565b61126b565b6040516103fa919061188e565b60405180910390f35b61041d60048036038101906104189190611846565b61128b565b005b61043960048036038101906104349190611846565b611311565b005b60001515600060159054906101000a900460ff16151503610488576040517f3ab1cd0900000000000000000000000000000000000000000000000000000000815260040160405180910390fd5b6001151561049533610b4c565b1515146104ce576040517fd86f2c8500000000000000000000000000000000000000000000000000000000815260040160405180910390fd5b600115156104db82611071565b151503610514576040517fbb36c80500000000000000000000000000000000000000000000000000000000815260040160405180910390fd5b6001151561052182610b4c565b15150361055a576040517f3ca915dc00000000000000000000000000000000000000000000000000000000815260040160405180910390fd5b6001600560008373ffffffffffffffffffffffffffffffffffffffff1673ffffffffffffffffffffffffffffffffffffffff168152602001908152602001600020819055506006819080600181540180825580915050600190039060005260206000200160009091909190916101000a81548173ffffffffffffffffffffffffffffffffffffffff021916908373ffffffffffffffffffffffffffffffffffffffff16021790555050565b60046020528060005260406000206000915054906101000a900460ff1681565b6000806106306115df565b60011515600060149054906101000a900460ff1615151480610665575060011515600060159054906101000a900460ff161515145b1561069c576040517fb9c2fbdc00000000000000000000000000000000000000000000000000000000815260040160405180910390fd5b60006006805490501115806106b75750600060038054905011155b156106ee576040517f94fe7e2900000000000000000000000000000000000000000000000000000000815260040160405180910390fd5b60008060005b6006805490508110156108225760006006828154811061071757610716611a29565b5b9060005260206000200160009054906101000a900473ffffffffffffffffffffffffffffffffffffffff16905082600560008373ffffffffffffffffffffffffffffffffffffffff1673ffffffffffffffffffffffffffffffffffffffff1681526020019081526020016000205411156107d157600560008273ffffffffffffffffffffffffffffffffffffffff1673ffffffffffffffffffffffffffffffffffffffff1681526020019081526020016000205492508093505b600560008273ffffffffffffffffffffffffffffffffffffffff1673ffffffffffffffffffffffffffffffffffffffff168152602001908152602001600020600090555080806001019150506106f4565b5060005b6003805490508110156108d057600460006003838154811061084b5761084a611a29565b5b9060005260206000200160000160019054906101000a900473ffffffffffffffffffffffffffffffffffffffff1673ffffffffffffffffffffffffffffffffffffffff1673ffffffffffffffffffffffffffffffffffffffff16815260200190815260200160002060006101000a81549060ff02191690558080600101915050610826565b50600360006108df9190611732565b600660006108ed9190611753565b60005b60018054905081101561099a57600260006001838154811061091557610914611a29565b5b9060005260206000200160000160019054906101000a900473ffffffffffffffffffffffffffffffffffffffff1673ffffffffffffffffffffffffffffffffffffffff1673ffffffffffffffffffffffffffffffffffffffff16815260200190815260200160002060006101000a81549060ff021916905580806001019150506108f0565b50600160006109a99190611732565b816001826109b79190611a87565b9350935050509091565b600181815481106109d157600080fd5b906000526020600020016000915090508060000160009054906101000a900460ff16908060000160019054906101000a900473ffffffffffffffffffffffffffffffffffffffff16905082565b60011515610a2b33610b4c565b151514610a64576040517fd86f2c8500000000000000000000000000000000000000000000000000000000815260040160405180910390fd5b60011515600060159054906101000a900460ff16151503610ab1576040517f5fd4786000000000000000000000000000000000000000000000000000000000815260040160405180910390fd5b600060068054905003610af0576040517f0861f7b500000000000000000000000000000000000000000000000000000000815260040160405180910390fd5b600060038054905011610b2f576040517fc5c6b6bc00000000000000000000000000000000000000000000000000000000815260040160405180910390fd5b6001600060146101000a81548160ff021916908315150217905550565b600060011515600260008473ffffffffffffffffffffffffffffffffffffffff1673ffffffffffffffffffffffffffffffffffffffff16815260200190815260200160002060009054906101000a900460ff161515149050919050565b60001515600060149054906101000a900460ff16151503610bf6576040517f62e0514d00000000000000000000000000000000000000000000000000000000815260040160405180910390fd5b60001515610c0382611071565b151503610c3c576040517fa3daa97800000000000000000000000000000000000000000000000000000000815260040160405180910390fd5b60001515600460003373ffffffffffffffffffffffffffffffffffffffff1673ffffffffffffffffffffffffffffffffffffffff16815260200190815260200160002060009054906101000a900460ff16151503610cc6576040517fc812b04700000000000000000000000000000000000000000000000000000000815260040160405180910390fd5b6000600460003373ffffffffffffffffffffffffffffffffffffffff1673ffffffffffffffffffffffffffffffffffffffff16815260200190815260200160002060006101000a81548160ff021916908315150217905550600560008273ffffffffffffffffffffffffffffffffffffffff1673ffffffffffffffffffffffffffffffffffffffff1681526020019081526020016000206000815480929190610d6e90611abb565b919050555050565b60011515610d8333610b4c565b151503610da55760008060156101000a81548160ff0219169083151502179055505b565b600060011515600460008473ffffffffffffffffffffffffffffffffffffffff1673ffffffffffffffffffffffffffffffffffffffff16815260200190815260200160002060009054906101000a900460ff161515149050919050565b610e0c6115df565b60011515610e1982610b4c565b15151480610e7257507f000000000000000000000000000000000000000000000000000000000000000073ffffffffffffffffffffffffffffffffffffffff168173ffffffffffffffffffffffffffffffffffffffff16145b15610ea9576040517fb047bf4f00000000000000000000000000000000000000000000000000000000815260040160405180910390fd5b6001600260008373ffffffffffffffffffffffffffffffffffffffff1673ffffffffffffffffffffffffffffffffffffffff16815260200190815260200160002060006101000a81548160ff0219169083151502179055506001604051806040016040528060006001811115610f2257610f21611953565b5b81526020018373ffffffffffffffffffffffffffffffffffffffff168152509080600181540180825580915050600190039060005260206000200160009091909190915060008201518160000160006101000a81548160ff02191690836001811115610f9157610f90611953565b5b021790555060208201518160000160016101000a81548173ffffffffffffffffffffffffffffffffffffffff021916908373ffffffffffffffffffffffffffffffffffffffff160217905550505050565b610fea6115df565b610ff46000611666565b565b6006818154811061100657600080fd5b906000526020600020016000915054906101000a900473ffffffffffffffffffffffffffffffffffffffff1681565b600060149054906101000a900460ff1681565b60008060009054906101000a900473ffffffffffffffffffffffffffffffffffffffff16905090565b60006001600560008473ffffffffffffffffffffffffffffffffffffffff1673ffffffffffffffffffffffffffffffffffffffff1681526020019081526020016000205410159050919050565b600060159054906101000a900460ff1681565b60006006805490501115611111576040517fa113547200000000000000000000000000000000000000000000000000000000815260040160405180910390fd5b6000151561111e33610b4c565b151503611157576040517fd86f2c8500000000000000000000000000000000000000000000000000000000815260040160405180910390fd5b6001600060156101000a81548160ff021916908315150217905550565b6001151561118133610b4c565b15151415806111a3575060011515600060159054906101000a900460ff161515145b156111da576040517f5a9e672100000000000000000000000000000000000000000000000000000000815260040160405180910390fd5b60008060146101000a81548160ff021916908315150217905550565b6003818154811061120657600080fd5b906000526020600020016000915090508060000160009054906101000a900460ff16908060000160019054906101000a900473ffffffffffffffffffffffffffffffffffffffff16905082565b60056020528060005260406000206000915090505481565b60026020528060005260406000206000915054906101000a900460ff1681565b6112936115df565b600073ffffffffffffffffffffffffffffffffffffffff168173ffffffffffffffffffffffffffffffffffffffff16036113055760006040517f1e4fbdf70000000000000000000000000000000000000000000000000000000081526004016112fc91906119f3565b60405180910390fd5b61130e81611666565b50565b61131a81610da7565b8061132a575061132981610b4c565b5b8061138057507f000000000000000000000000000000000000000000000000000000000000000073ffffffffffffffffffffffffffffffffffffffff168173ffffffffffffffffffffffffffffffffffffffff16145b80611390575061138f81611071565b5b156113c7576040517f49408d4d00000000000000000000000000000000000000000000000000000000815260040160405180910390fd5b60011515600060149054906101000a900460ff16151503611414576040517fb74e069600000000000000000000000000000000000000000000000000000000815260040160405180910390fd5b6000151561142133610b4c565b15150361145a576040517f334271e500000000000000000000000000000000000000000000000000000000815260040160405180910390fd5b60011515600060159054906101000a900460ff161515036114a7576040517f5fd4786000000000000000000000000000000000000000000000000000000000815260040160405180910390fd5b6001600460008373ffffffffffffffffffffffffffffffffffffffff1673ffffffffffffffffffffffffffffffffffffffff16815260200190815260200160002060006101000a81548160ff0219169083151502179055506003604051806040016040528060018081111561151f5761151e611953565b5b81526020018373ffffffffffffffffffffffffffffffffffffffff168152509080600181540180825580915050600190039060005260206000200160009091909190915060008201518160000160006101000a81548160ff0219169083600181111561158e5761158d611953565b5b021790555060208201518160000160016101000a81548173ffffffffffffffffffffffffffffffffffffffff021916908373ffffffffffffffffffffffffffffffffffffffff160217905550505050565b6115e761172a565b73ffffffffffffffffffffffffffffffffffffffff16611605611048565b73ffffffffffffffffffffffffffffffffffffffff16146116645761162861172a565b6040517f118cdaa700000000000000000000000000000000000000000000000000000000815260040161165b91906119f3565b60405180910390fd5b565b60008060009054906101000a900473ffffffffffffffffffffffffffffffffffffffff169050816000806101000a81548173ffffffffffffffffffffffffffffffffffffffff021916908373ffffffffffffffffffffffffffffffffffffffff1602179055508173ffffffffffffffffffffffffffffffffffffffff168173ffffffffffffffffffffffffffffffffffffffff167f8be0079c531659141344cd1fd0a4f28419497f9722a3daafe3b4186f6b6457e060405160405180910390a35050565b600033905090565b50805460008255906000526020600020908101906117509190611774565b50565b508054600082559060005260206000209081019061177191906117c6565b50565b5b808211156117c257600080820160006101000a81549060ff02191690556000820160016101000a81549073ffffffffffffffffffffffffffffffffffffffff021916905550600101611775565b5090565b5b808211156117df5760008160009055506001016117c7565b5090565b600080fd5b600073ffffffffffffffffffffffffffffffffffffffff82169050919050565b6000611813826117e8565b9050919050565b61182381611808565b811461182e57600080fd5b50565b6000813590506118408161181a565b92915050565b60006020828403121561185c5761185b6117e3565b5b600061186a84828501611831565b91505092915050565b60008115159050919050565b61188881611873565b82525050565b60006020820190506118a3600083018461187f565b92915050565b6118b281611808565b82525050565b6000819050919050565b6118cb816118b8565b82525050565b60006040820190506118e660008301856118a9565b6118f360208301846118c2565b9392505050565b611903816118b8565b811461190e57600080fd5b50565b600081359050611920816118fa565b92915050565b60006020828403121561193c5761193b6117e3565b5b600061194a84828501611911565b91505092915050565b7f4e487b7100000000000000000000000000000000000000000000000000000000600052602160045260246000fd5b6002811061199357611992611953565b5b50565b60008190506119a482611982565b919050565b60006119b482611996565b9050919050565b6119c4816119a9565b82525050565b60006040820190506119df60008301856119bb565b6119ec60208301846118a9565b9392505050565b6000602082019050611a0860008301846118a9565b92915050565b6000602082019050611a2360008301846118c2565b92915050565b7f4e487b7100000000000000000000000000000000000000000000000000000000600052603260045260246000fd5b7f4e487b7100000000000000000000000000000000000000000000000000000000600052601160045260246000fd5b6000611a92826118b8565b9150611a9d836118b8565b9250828203905081811115611ab557611ab4611a58565b5b92915050565b6000611ac6826118b8565b91507fffffffffffffffffffffffffffffffffffffffffffffffffffffffffffffffff8203611af857611af7611a58565b5b60018201905091905056fea264697066735822122009b7d5a4b5d257035f6a8dc79c24328ea3eda60be97eb50aef530df9fcf1453a64736f6c63430008180033",
    "linkReferences": {},
    "deployedLinkReferences": {}
}